:040000000C94CE008E
:100004000C9400000C9400000C9400000C9400006C
:100014000C9400000C9400000C9400000C9400005C
:100024000C9400000C9400000C9405020C94000045
:100034000C9400000C9400000C9400000C9400003C
:100044000C9400000C9406010C9400000C946301C1
:100054000C9400000C9400000C9400000C9400001C
:100064000C9400007E306D79335B5F707F7B80770A
:100074004E4F5E1DFFFF61000300610000000000A1
:1000840000000100572532643D2025356409200015
:10009400572532643D202535640D0A200079446FCC
:1000A4006D4841207665722E2031306220436F7096
:1000B40079726967687420554E49454C204C6967CC
:1000C4006874696E6720496E647573747269616CD3
:1000D40020436F204C74642C20696E205275737316
:1000E400696120202533750A0D0056657273696FA6
:1000F4006E20203133303531352E30303120537479
:100104002533750A0D004368696E612C20556B72A6
:1001140061696E652C42656C6F72757320616E64E3
:100124002052757369616E204665646572617469F5
:100134006F6E20506174656E74205072696F7269BD
:10014400747920323031313132333038312F303814
:1001540028303334323034292030382E30362E32A1
:100164003031310001002D4E414E000010000003DB
:10017400680002005A047800010062047A00010059
:1001840063047C00010074047E0007000600800004
:1001940001008B0468010000F894EE27EFBBF1E046
:1001A400F5BFE5BFF8E1A895A4B7A77FA4BFF09376
:1001B4006000E09360008DE0A2E0BB27ED938A9598
:1001C400E9F780E098E0A0E0B1E0ED930197E9F76A
:1001D400E0E7F1E085919591009761F0A591B591E3
:1001E40005901590BF01F00105900D920197E1F77C
:1001F400FB01F0CFE0E0EEBBEFEFEDBFE8E0EEBFD8
:10020400C0E0D3E00C94B815AA93BA93EA93FA9396
:10021400EFB7EA931A930A931091C0000091C600B5
:10022400A12FB0E0ECE1F0E0EA23FB233097D9F40E
:10023400E0917D04F0E0EB58FB4F0083A0917D0436
:10024400AF5FA0937D04A83019F4E0E0E0937D044F
:10025400A0917F04AF5FA0937F04A83021F4E0E075
:10026400E0937F04F09AE0916704F0E0E160E093AA
:10027400670409911991E991EFBFF991E991B99155
:10028400A99118951A93E0917F04E030E1F3E0918D
:100294007E04F0E0EB58FB4F1081A0917E04AF5F29
:1002A400A0937E04A83019F4E0E0E0937E04F8946F
:1002B400E0917F04E150E0937F047894E12F199159
:1002C4000895AA93EA93FA93EFB7EA93E0918A0424
:1002D400E030A9F0E150E0938A04E0918904F0E071
:1002E400E058FB4FE081E093C600A0918904AF5F22
:1002F400A0938904A83019F4E0E0E0938904E9911B
:10030400EFBFF991E991A9911895A0918A04A830B9
:10031400E1F3F894E0918A04E03029F4E091C0001C
:10032400F0E0E072B9F4E0918804F0E0E058FB4FAB
:10033400A881A083A0918804AF5FA0938804A8300B
:1003440019F4E0E0E0938804E0918A04EF5FE0931D
:100354008A0403C0E881E093C60078941DC0E88154
:10036400F0E0E064E0937C008DE38A95F1F7AAE77E
:10037400B0E0EC91F0E0E064EC93E0917A00F0E01E
:10038400E071D9F3AAE7B0E0EC91F0E0E061EC931E
:10039400E0917800F091790021960895E091670446
:1003A400F0E0EF7D2DC0E0917304F0E0E061E093B4
:1003B4007304E7E0EB1520F4BB24E0E0E09366046B
:1003C400E2E0EB1511F4E6E0BE2EE0916604AAE249
:1003D400B4E0F0E0EE0FFF1FEA0FFB1FFF93EF9373
:1003E400BA92BDDFAF91BF91ED93FC93E0916604A7
:1003F400EF5FE0936604B394E0916704F0E0EF7E6E
:10040400E09367040895AA93BA93EA93FA93EFB733
:10041400EA93A0916504AF5FA0936504A150A33152
:10042400C8F0E0916704F0E0E061E0936704A92D6F
:10043400BB27EC2DF0E0EA0F9E2EE0E1E91538F43D
:100444009924E0916704F0E0E068E0936704E0E059
:10045400E0936504A0916504A93031F4E091670448
:10046400F0E0E460E0936704E0917204E03019F096
:10047400E150E0937204E991EFBFF991E991B991E8
:10048400A991189586EE90E00197F1F7A881AF3F06
:1004940011F4E0E0E883EFEFEA9337DFEFEFEA935C
:1004A40034DFED81EA9331DFEC81EA932EDFEB81D7
:1004B400EA932BDFEA81EA9328DFE981EA9325DFD7
:1004C400E881EA9322DFEBE0E09372042696089534
:1004D4001A930A93A0916904BB27E8E0F0E00E9414
:1004E400C91BE0936904E0917F04E03011F40C949B
:1004F4003D03E0916904F0E0E659FB4FFF93EF936D
:10050400C1DEAF91BF91EC93E0916904F0E0BF01CB
:100514003196DF01E8E0F0E00E94C91BE659FB4F89
:10052400E081EF3F79F5DB011296E8E0F0E00E940C
:10053400C91BE659FB4FE081EF3F21F5DB0114961F
:10054400E8E0F0E00E94C91BE659FB4FE081A0916E
:10055400BA03EA17B1F0DB011496E8E0F0E00E9478
:10056400C91BE659FB4FE081EE3F59F0DB011496BD
:10057400E8E0F0E00E94C91BE659FB4FE081ED3F43
:1005840009F401C073C0E0916904F0E03396DF011F
:10059400E8E0F0E00E94C91BE659FB4F6081772731
:1005A400E0916904F0E03496DF01E8E0F0E00E94B5
:1005B400C91BE659FB4FE081F0E06E0F7F1FE0910D
:1005C4006904F0E03596DF01E8E0F0E00E94C91B21
:1005D400E659FB4FE081F0E06E0F7F1FE091690464
:1005E400F0E03696DF01E8E0F0E00E94C91BE6592E
:1005F400FB4FE081F0E06E0F7F1FE0916904F0E0B3
:100604003796DF01E8E0F0E00E94C91BE659FB4F92
:10061400E081F0E0DB01EA0F0E2FE0916904F0E0E5
:10062400E659FB4FE081E01709F512E01730C0F4FA
:10063400E12FF0E0EE5AFB4FBF01E0916904F0E0D6
:100644003196DF01EE27A10FBE1FE8E0F0E00E9423
:10065400C91BE659FB4FE081DB01EC931F5FE6CF3A
:10066400E0916704F0E0E860E0936704E0916904D6
:10067400EF5FE0936904E0917F04E03039F4E091A6
:100684006704F0E0EE7FF070E0936704099119913C
:100694000895E42DF0E0309711F00C94E8054A99A0
:1006A40003C0E0E0E41509F08FC2E0E0F0E060E0B0
:1006B40070E0E093B503F093B6036093B7037093CF
:1006C400B803F894DD24E8E1DE1658F5E091B503AB
:1006D400F091B6036091B7037091B8030E94721B46
:1006E400E093B503F093B6036093B7037093B80334
:1006F400429A89E18A95F1F742988CE08A95F1F75C
:100704004A9B0AC0A5EBB3E00E941A1CEF5FFF4F9F
:100714006F4F7F4F0E94241C8CE08A95F1F7D3948D
:10072400D2CF429A89E18A95F1F7429889E18A9574
:10073400F1F77894A091B503B091B6038091B70313
:100744009091B803A130E0E0BE07E0E88E07E0E056
:100754009E07E8F0E42DA5E3B3E0F0E00E94641BFB
:10076400EA0FFB1F0F01A091B503B091B60380916E
:10077400B7039091B803EFEFFFEF6FEF70E00E94C3
:10078400421B0E944B1BD0010E941F1C14C0E42D6D
:10079400A5E3B3E0F0E00E94641BEA0FFB1FA09105
:1007A400B503B091B6038091B7039091B803A083C9
:1007B400B18382839383A42DB0E0AB5DBC4FEC91F5
:1007C400EF5FEC93E150E13F30F0E42DF0E0EB5DBE
:1007D400FC4FA0EFA083E42DF0E0EB5DFC4FE08143
:1007E400AE2FE091BC03F0E03396B0E0AE17BF0744
:1007F40014F00C943F04E42DF0E0EB5DFC4FE08139
:10080400E33070F1E42DA5E7B3E0F0E00E94641B4F
:10081400EA0FFB1FFF93EF93DF010E94141C7F93E9
:100824006F93FF93EF93E42DA5E3B3E0F0E00E9410
:10083400641BAE0FBF1F0E94141CDF01CB01E091AB
:10084400BC03F0E00E94771B0E94C11BAF91BF91D3
:100854008F919F910E943D1BAF91BF910E941F1CDD
:10086400E42DA2E3B4E0F0E0EE0FFF1FAE0FBF1FD4
:10087400E8EBF2E2ED93FC93A5C1E42DA5E3B3E02C
:10088400F0E00E94641BEA0FFB1FFF93EF93DF016C
:100894000E94141C7F936F93FF93EF93E42DA5E7BD
:1008A400B3E0F0E00E94641BAE0FBF1F0E94141C53
:1008B400AF91BF918F919F910E942E1C0E94421B69
:1008C400AF91BF910E941F1CE091BD03E03021F065
:1008D400E091BD03E230C1F4E42DA5E3B3E0F0E020
:1008E4000E94641BEA0FFB1FFF93EF93DF010E943A
:1008F400141CDF01CB01E1EDF0E060E070E00E9448
:10090400C11BAF91BF911BC0E091BD03E130C9F49D
:10091400E42DA5E3B3E0F0E00E94641BEA0FFB1FA3
:10092400FF93EF93DF010E94141CDF01CB01EAE285
:10093400F8E060E070E00E94C11BAF91BF910E949B
:100944001F1CE42DA5E3B3E0F0E00E94641BAE0F8E
:10095400BF1F0E94141CDF01CB010E94161EA4F4C9
:10096400E42DA2E3B4E0F0E0EE0FFF1FEA0FFB1F5B
:100974000F01E42DA5E3B3E0F0E00E94641BAE0F89
:10098400BF1F0E94101C17C0E42DA2E3B4E0F0E0E6
:10099400EE0FFF1FEA0FFB1F0F01E42DA5E3B3E0E9
:1009A400F0E00E94641BAE0FBF1F0E94141C0E9443
:1009B4004B1B66277727D001ED93FC93E091BE0390
:1009C400E030D9F4E8E8F0E0FA93EA93E42DFF2765
:1009D400662777270E94291CE42DA5E3B3E0F0E005
:1009E4000E94641BAE0FBF1F0E94141C0E94291C8E
:1009F40088E00E94F41A2A969EC0E091BE03E1307A
:100A040011F00C949D05E42DA5E3B3E0F0E00E9401
:100A1400641BAE0FBF1F0E94141C77238AF5E42DBC
:100A2400A5E3B3E0F0E00E94641BAE0FBF1F0E9479
:100A3400141C0E944B1BDF01CB01E0E0F1E060E0FD
:100A440070E00E94DB1BE0935E04E42DA5E3B3E0B9
:100A5400F0E00E94641BAE0FBF1F0E94141CDF0154
:100A6400CB01E0E0F1E060E070E00E94C11BA0E88F
:100A7400B0E080E090E00E942E1C0E94421B26C041
:100A8400E42DA5E3B3E0F0E00E94641BAE0FBF1FAA
:100A94000E94141CDF01CB01E0E0F1E060E070E0B3
:100AA4000E94DB1BE0935E04E42DA5E3B3E0F0E0D9
:100AB4000E94641BAE0FBF1F0E94141CDF01CB01F8
:100AC400E0E0F1E060E070E00E94C11BE0936004AC
:100AD40040925F04E5E0E0935C04E0E0E0935D04B1
:100AE400A0915C04BB27E0915D04F0E0AE0FBF1F52
:100AF400E0915E04F0E0AE0FBF1FE0915F04F0E010
:100B0400AE0FBF1FE0916004F0E0EA0FE0936104D0
:100B1400E0915C04EA93E0915D04EA93E0915E0461
:100B2400EA93E0915F04EA93E0916004EA93E09130
:100B34006104EA93A7DCE091BD03E23011F00C9468
:100B4400E405E42DA5E3B3E0F0E00E94641BAE0FDE
:100B5400BF1F0E94141CDF01CB010E94161E4CF51E
:100B6400E42DF0E0EF5DFC4FFF93EF93E42DA5E35C
:100B7400B3E0F0E00E94641BAE0FBF1F0E94141C80
:100B8400EF5FFF4F6F4F7F4F0E94D71C0E94291CBD
:100B94000E941518A0E0B0E080EC90E40E945F1D74
:100BA4000E949E1CFF2766277727AF91BF91EC9385
:100BB40006C0E42DF0E0EF5DFC4FA1E0A083EAEA7B
:100BC400EA93A3DBE1E04E2E0C94AB0DE130A0E000
:100BD400FA0711F00C947F084B998EC2E0E0F0E024
:100BE40060E070E0E093B503F093B6036093B7035D
:100BF4007093B803F894DD24E8E1DE1658F5E0912B
:100C0400B503F091B6036091B7037091B8030E94E5
:100C1400721BE093B503F093B6036093B70370932C
:100C2400B803439A89E18A95F1F743988CE08A9551
:100C3400F1F74B9B0AC0A5EBB3E00E941A1CEF5FCF
:100C4400FF4F6F4F7F4F0E94241C8CE08A95F1F771
:100C5400D394D2CF439A89E18A95F1F74398789453
:100C6400A091B503B091B6038091B7039091B803F6
:100C7400A130E0E0BE07E0E88E07E0E09E07E8F080
:100C8400E42DA5E3B3E0F0E00E94641BEA0FFB1F30
:100C94000F01A091B503B091B6038091B703909171
:100CA400B803EFEFFFEF6FEF70E00E94421B0E946A
:100CB4004B1BD0010E941F1C14C0E42DA5E3B3E01C
:100CC400F0E00E94641BEA0FFB1FA091B503B091F2
:100CD400B6038091B7039091B803A083B183828354
:100CE4009383A42DB0E0AB5DBC4FEC91EF5FEC932C
:100CF400E150E13F30F0E42DF0E0EB5DFC4FA0EF7C
:100D0400A083E42DF0E0EB5DFC4FE081AE2FE09199
:100D1400BC03F0E03396B0E0AE17BF0714F00C94B8
:100D2400D506E42DF0E0EB5DFC4FE081E33070F19B
:100D3400E42DA5E7B3E0F0E00E94641BEA0FFB1F7B
:100D4400FF93EF93DF010E94141C7F936F93FF9333
:100D5400EF93E42DA5E3B3E0F0E00E94641BAE0F33
:100D6400BF1F0E94141CDF01CB01E091BC03F0E023
:100D74000E94771B0E94C11BAF91BF918F919F91DD
:100D84000E943D1BAF91BF910E941F1CE42DA2E362
:100D9400B4E0F0E0EE0FFF1FAE0FBF1FE8EBF2E28E
:100DA400ED93FC93A7C1E42DA5E3B3E0F0E00E942A
:100DB400641BEA0FFB1FFF93EF93DF010E94141CD7
:100DC4007F936F93FF93EF93E42DA5E7B3E0F0E0F7
:100DD4000E94641BAE0FBF1F0E94141CAF91BF91F1
:100DE4008F919F910E942E1C0E94421BAF91BF9134
:100DF4000E941F1CE091BD03E03021F0E091BD038F
:100E0400E230C1F4E42DA5E3B3E0F0E00E94641BFA
:100E1400EA0FFB1FFF93EF93DF010E94141CDF0115
:100E2400CB01E1EDF0E060E070E00E94C11BAF9106
:100E3400BF911BC0E091BD03E130C9F4E42DA5E3EB
:100E4400B3E0F0E00E94641BEA0FFB1FFF93EF93F3
:100E5400DF010E94141CDF01CB01EAE2F8E060E04C
:100E640070E00E94C11BAF91BF910E941F1CE42D32
:100E7400A5E3B3E0F0E00E94641BAE0FBF1F0E9425
:100E8400141CDF01CB010E94161EA4F4E42DA2E37E
:100E9400B4E0F0E0EE0FFF1FEA0FFB1F0F01E42D9B
:100EA400A5E3B3E0F0E00E94641BAE0FBF1F0E94F5
:100EB400101C17C0E42DA2E3B4E0F0E0EE0FFF1F16
:100EC400EA0FFB1F0F01E42DA5E3B3E0F0E00E945D
:100ED400641BAE0FBF1F0E94141C0E944B1B66278D
:100EE4007727D001ED93FC93E091BE03E030D9F471
:100EF400E8E8F0E0FA93EA93E42DFF2766277727E2
:100F04000E94291CE42DA5E3B3E0F0E00E94641BD9
:100F1400AE0FBF1F0E94141C0E94291C88E00E946F
:100F2400F41A2A969FC0E091BE03E13011F00C94AC
:100F34003408E42DA5E3B3E0F0E00E94641BAE0F97
:100F4400BF1F0E94141C77238AF5E42DA5E3B3E0A8
:100F5400F0E00E94641BAE0FBF1F0E94141C0E948D
:100F64004B1BDF01CB01E0E0F1E060E070E00E94A8
:100F7400DB1BE0935E04E42DA5E3B3E0F0E00E9404
:100F8400641BAE0FBF1F0E94141CDF01CB01E0E005
:100F9400F1E060E070E00E94C11BA0E8B0E080E0F6
:100FA40090E00E942E1C0E94421B26C0E42DA5E363
:100FB400B3E0F0E00E94641BAE0FBF1F0E94141C3C
:100FC400DF01CB01E0E0F1E060E070E00E94DB1BB8
:100FD400E0935E04E42DA5E3B3E0F0E00E94641B1B
:100FE400AE0FBF1F0E94141CDF01CB01E0E0F1E053
:100FF40060E070E00E94C11BE093600440925F04D3
:10100400E5E0E0935C04E0E0E0935D04A0915C041F
:10101400BB27E0915D04F0E0AE0FBF1FE0915E04DA
:10102400F0E0AE0FBF1FE0915F04F0E0AE0FBF1F12
:10103400E0916004F0E0EA0FE0936104E0915C0465
:10104400EA93E0915D04EA93E0915E04EA93E0910F
:101054005F04EA93E0916004EA93E0916104EA9307
:101064000E944402E091BD03E23011F00C947C082C
:10107400E42DA5E3B3E0F0E00E94641BAE0FBF1FB4
:101084000E94141CDF01CB010E94161E4CF5E42DB6
:10109400F0E0EF5DFC4FFF93EF93E42DA5E3B3E0A5
:1010A400F0E00E94641BAE0FBF1F0E94141CEF5F90
:1010B400FF4F6F4F7F4F0E94D71C0E94291C0E9434
:1010C4001518A0E0B0E080EC90E40E945F1D0E943F
:1010D4009E1CFF2766277727AF91BF91EC9306C02C
:1010E400E42DF0E0EF5DFC4FA1E0A083EAEAEA938F
:1010F4000E948701E2E04E2E2CC5E230A0E0FA0700
:1011040011F00C94160B4C998EC2E0E0F0E060E014
:1011140070E0E093B503F093B6036093B703709364
:10112400B803F894DD24E8E1DE1658F5E091B50340
:10113400F091B6036091B7037091B8030E94721BDB
:10114400E093B503F093B6036093B7037093B803C9
:10115400409A89E18A95F1F740988CE08A95F1F7F5
:101164004C9B0AC0A5EBB3E00E941A1CEF5FFF4F33
:101174006F4F7F4F0E94241C8CE08A95F1F7D39423
:10118400D2CF409A89E18A95F1F740987894A0915A
:10119400B503B091B6038091B7039091B803A13021
:1011A400E0E0BE07E0E88E07E0E09E07E8F0E42D0B
:1011B400A5E3B3E0F0E00E94641BEA0FFB1F0F01FC
:1011C400A091B503B091B6038091B7039091B80391
:1011D400EFEFFFEF6FEF70E00E94421B0E944B1B8A
:1011E400D0010E941F1C14C0E42DA5E3B3E0F0E07D
:1011F4000E94641BEA0FFB1FA091B503B091B603D4
:101204008091B7039091B803A083B18382839383C1
:10121400A42DB0E0AB5DBC4FEC91EF5FEC93E150DB
:10122400E13F30F0E42DF0E0EB5DFC4FA0EFA08354
:10123400E42DF0E0EB5DFC4FE081AE2FE091BC03C8
:10124400F0E03396B0E0AE17BF0714F00C946C09CD
:10125400E42DF0E0EB5DFC4FE081E33070F1E42D30
:10126400A5E7B3E0F0E00E94641BEA0FFB1FFF93C5
:10127400EF93DF010E94141C7F936F93FF93EF930E
:10128400E42DA5E3B3E0F0E00E94641BAE0FBF1FA2
:101294000E94141CDF01CB01E091BC03F0E00E942A
:1012A400771B0E94C11BAF91BF918F919F910E94A8
:1012B4003D1BAF91BF910E941F1CE42DA2E3B4E03B
:1012C400F0E0EE0FFF1FAE0FBF1FE8EBF2E2ED936D
:1012D400FC93A7C1E42DA5E3B3E0F0E00E94641BF6
:1012E400EA0FFB1FFF93EF93DF010E94141C7F930F
:1012F4006F93FF93EF93E42DA5E7B3E0F0E00E9432
:10130400641BAE0FBF1F0E94141CAF91BF918F913D
:101314009F910E942E1C0E94421BAF91BF910E947C
:101324001F1CE091BD03E03021F0E091BD03E230E9
:10133400C1F4E42DA5E3B3E0F0E00E94641BEA0FDE
:10134400FB1FFF93EF93DF010E94141CDF01CB010D
:10135400E1EDF0E060E070E00E94C11BAF91BF914D
:101364001BC0E091BD03E130C9F4E42DA5E3B3E073
:10137400F0E00E94641BEA0FFB1FFF93EF93DF0171
:101384000E94141CDF01CB01EAE2F8E060E070E0A7
:101394000E94C11BAF91BF910E941F1CE42DA5E3C5
:1013A400B3E0F0E00E94641BAE0FBF1F0E94141C48
:1013B400DF01CB010E94161EA4F4E42DA2E3B4E0E5
:1013C400F0E0EE0FFF1FEA0FFB1F0F01E42DA5E372
:1013D400B3E0F0E00E94641BAE0FBF1F0E94101C1C
:1013E40017C0E42DA2E3B4E0F0E0EE0FFF1FEA0F14
:1013F400FB1F0F01E42DA5E3B3E0F0E00E94641BA2
:10140400AE0FBF1F0E94141C0E944B1B6627772738
:10141400D001ED93FC93E091BE03E030D9F4E8E809
:10142400F0E0FA93EA93E42DFF27662777270E94DA
:10143400291CE42DA5E3B3E0F0E00E94641BAE0F89
:10144400BF1F0E94141C0E94291C88E00E94F41AE9
:101454002A969FC0E091BE03E13011F00C94CB0AB0
:10146400E42DA5E3B3E0F0E00E94641BAE0FBF1FC0
:101474000E94141C77238AF5E42DA5E3B3E0F0E081
:101484000E94641BAE0FBF1F0E94141C0E944B1BC2
:10149400DF01CB01E0E0F1E060E070E00E94DB1BE3
:1014A400E0935E04E42DA5E3B3E0F0E00E94641B46
:1014B400AE0FBF1F0E94141CDF01CB01E0E0F1E07E
:1014C40060E070E00E94C11BA0E8B0E080E090E022
:1014D4000E942E1C0E94421B26C0E42DA5E3B3E00B
:1014E400F0E00E94641BAE0FBF1F0E94141CDF01BA
:1014F400CB01E0E0F1E060E070E00E94DB1BE093F0
:101504005E04E42DA5E3B3E0F0E00E94641BAE0F9B
:10151400BF1F0E94141CDF01CB01E0E0F1E060E09A
:1015240070E00E94C11BE093600440925F04E5E018
:10153400E0935C04E0E0E0935D04A0915C04BB27CD
:10154400E0915D04F0E0AE0FBF1FE0915E04F0E0B7
:10155400AE0FBF1FE0915F04F0E0AE0FBF1FE0913C
:101564006004F0E0EA0FE0936104E0915C04EA9324
:10157400E0915D04EA93E0915E04EA93E0915F04F4
:10158400EA93E0916004EA93E0916104EA930E9493
:101594004402E091BD03E23011F00C94130BE42DEE
:1015A400A5E3B3E0F0E00E94641BAE0FBF1F0E94EE
:1015B400141CDF01CB010E94161E4CF5E42DF0E053
:1015C400EF5DFC4FFF93EF93E42DA5E3B3E0F0E070
:1015D4000E94641BAE0FBF1F0E94141CEF5FFF4FDD
:1015E4006F4F7F4F0E94D71C0E94291C0E94151820
:1015F400A0E0B0E080EC90E40E945F1D0E949E1C7D
:10160400FF2766277727AF91BF91EC9306C0E42D9F
:10161400F0E0EF5DFC4FA1E0A083EAEAEA930E94C8
:101624008701E3E04E2E95C2E330A0E0FA0711F003
:101634000C94AB0D4D998DC2E0E0F0E060E070E0F9
:10164400E093B503F093B6036093B7037093B803C4
:10165400F894DD24E8E1DE1658F5E091B503F09145
:10166400B6036091B7037091B8030E94721BE093B4
:10167400B503F093B6036093B7037093B803419A2C
:1016840089E18A95F1F741988CE08A95F1F74D9BB1
:101694000AC0A5EBB3E00E941A1CEF5FFF4F6F4F27
:1016A4007F4F0E94241C8CE08A95F1F7D394D2CF0B
:1016B400419A89E18A95F1F741987894A091B5030C
:1016C400B091B6038091B7039091B803A130E0E0E4
:1016D400BE07E0E88E07E0E09E07E8F0E42DA5E30E
:1016E400B3E0F0E00E94641BEA0FFB1F0F01A0911E
:1016F400B503B091B6038091B7039091B803EFEFAF
:10170400FFEF6FEF70E00E94421B0E944B1BD00161
:101714000E941F1C14C0E42DA5E3B3E0F0E00E9476
:10172400641BEA0FFB1FA091B503B091B60380912F
:10173400B7039091B803A083B18382839383A42DCC
:10174400B0E0AB5DBC4FEC91EF5FEC93E150E13F57
:1017540030F0E42DF0E0EB5DFC4FA0EFA083E42D2E
:10176400F0E0EB5DFC4FE081AE2FE091BC03F0E0D4
:101774003396B0E0AE17BF0714F00C94030CE42DBD
:10178400F0E0EB5DFC4FE081E33070F1E42DA5E780
:10179400B3E0F0E00E94641BEA0FFB1FFF93EF939A
:1017A400DF010E94141C7F936F93FF93EF93E42D4A
:1017B400A5E3B3E0F0E00E94641BAE0FBF1F0E94DC
:1017C400141CDF01CB01E091BC03F0E00E94771B05
:1017D4000E94C11BAF91BF918F919F910E943D1BAD
:1017E400AF91BF910E941F1CE42DA2E3B4E0F0E08E
:1017F400EE0FFF1FAE0FBF1FE8EBF2E2ED93FC9379
:10180400A7C1E42DA5E3B3E0F0E00E94641BEA0F56
:10181400FB1FFF93EF93DF010E94141C7F936F93D0
:10182400FF93EF93E42DA5E7B3E0F0E00E94641B7F
:10183400AE0FBF1F0E94141CAF91BF918F919F9157
:101844000E942E1C0E94421BAF91BF910E941F1C3C
:10185400E091BD03E03021F0E091BD03E230C1F43A
:10186400E42DA5E3B3E0F0E00E94641BEA0FFB1F44
:10187400FF93EF93DF010E94141CDF01CB01E1ED24
:10188400F0E060E070E00E94C11BAF91BF911BC00B
:10189400E091BD03E130C9F4E42DA5E3B3E0F0E049
:1018A4000E94641BEA0FFB1FFF93EF93DF010E946A
:1018B400141CDF01CB01EAE2F8E060E070E00E9472
:1018C400C11BAF91BF910E941F1CE42DA5E3B3E09F
:1018D400F0E00E94641BAE0FBF1F0E94141CDF01C6
:1018E400CB010E94161EA4F4E42DA2E3B4E0F0E0C0
:1018F400EE0FFF1FEA0FFB1F0F01E42DA5E3B3E07A
:10190400F0E00E94641BAE0FBF1F0E94101C17C0A2
:10191400E42DA2E3B4E0F0E0EE0FFF1FEA0FFB1F9B
:101924000F01E42DA5E3B3E0F0E00E94641BAE0FC9
:10193400BF1F0E94141C0E944B1B66277727D001EF
:10194400ED93FC93E091BE03E030D9F4E4E9F0E0D8
:10195400FA93EA93E42DFF27662777270E94291C30
:10196400E42DA5E3B3E0F0E00E94641BAE0FBF1FBB
:101974000E94141C0E94291C88E00E94F41A2A96D2
:101984009FC0E091BE03E13011F00C94620DE42D90
:10199400A5E3B3E0F0E00E94641BAE0FBF1F0E94FA
:1019A400141C77238AF5E42DA5E3B3E0F0E00E944C
:1019B400641BAE0FBF1F0E94141C0E944B1BDF014F
:1019C400CB01E0E0F1E060E070E00E94DB1BE0931B
:1019D4005E04E42DA5E3B3E0F0E00E94641BAE0FC7
:1019E400BF1F0E94141CDF01CB01E0E0F1E060E0C6
:1019F40070E00E94C11BA0E8B0E080E090E00E948B
:101A04002E1C0E94421B26C0E42DA5E3B3E0F0E0A7
:101A14000E94641BAE0FBF1F0E94141CDF01CB0188
:101A2400E0E0F1E060E070E00E94DB1BE0935E0424
:101A3400E42DA5E3B3E0F0E00E94641BAE0FBF1FEA
:101A44000E94141CDF01CB01E0E0F1E060E070E0F3
:101A54000E94C11BE093600440925F04E5E0E093C0
:101A64005C04E0E0E0935D04A0915C04BB27E0919A
:101A74005D04F0E0AE0FBF1FE0915E04F0E0AE0F36
:101A8400BF1FE0915F04F0E0AE0FBF1FE091600460
:101A9400F0E0EA0FE0936104E0915C04EA93E091E2
:101AA4005D04EA93E0915E04EA93E0915F04EA93B3
:101AB400E0916004EA93E0916104EA930E94440295
:101AC400E091BD03E23011F00C94AA0DE42DA5E3DE
:101AD400B3E0F0E00E94641BAE0FBF1F0E94141C11
:101AE400DF01CB010E94161E4CF5E42DF0E0EF5D02
:101AF400FC4FFF93EF93E42DA5E3B3E0F0E00E94E5
:101B0400641BAE0FBF1F0E94141CEF5FFF4F6F4F8B
:101B14007F4F0E94D71C0E94291C0E941518A0E028
:101B2400B0E080EC90E40E945F1D0E949E1CFF27A1
:101B340066277727AF91BF91EC9306C0E42DF0E0C0
:101B4400EF5DFC4FA1E0A083EAEAEA930E948701DB
:101B54004424E0916704F0E0EB7FE0936704089588
:101B6400E0910904E13039F4E0915504F0E0E058E3
:101B7400FF4FE0935D04E0915404F0E0309711F5D9
:101B8400E0E0EA93E0915D04EA93E0916304EA9370
:101B9400E0917404EA93E0916204EA93E09174049E
:101BA400F0E0A0916304B0916404AE0FBF1FE09114
:101BB4006204F0E0AE0FBF1FE0915D04F0E0EA0FB5
:101BC400FB1F30C2E530A0E0FA0711F00C94670E59
:101BD400E5E0E0935C04E0915704F0E0E754FC4F47
:101BE400E081E0935E04E0915704E0935F04E091A8
:101BF4005704F0E0E752FC4FE081E0936004E09189
:101C04005704E03F41F4E0917404E0935E04E091F2
:101C14006304E0936004E0915704E13F99F5E1EA3D
:101C2400F0E0FA93EA93E0917404FF27662777279C
:101C34000E94291C84E00E94F41A2696E4EFF1E045
:101C4400FA93EA930E942D1BEEEEF0E0FA93EA93E6
:101C5400E0916304F0916404662777270E94291CAD
:101C640084E00E94F41A2696E4EFF1E0FA93EA93F2
:101C74000E942D1BEAE0F1E0FA93EA9380E00E94CF
:101C8400F41A2296A0915C04BB27E0915E04F0E074
:101C9400AE0FBF1FE0915F04F0E0AE0FBF1FE091F5
:101CA4006004F0E0AE0FBF1FE0915D04F0E0EA0FC6
:101CB400E0936104E5E0EA93E0915D04EA93E09146
:101CC4005E04EA93E0915704A7C1EB30A0E0FA0761
:101CD400E9F4EBE0E0935C04E0E0E0935F04E0937C
:101CE4006004A0915C04BB27EE27A60DBE1FE09103
:101CF4005D04F0E0EA0FE0936104EBE0EA93E09125
:101D04005D04EA936A92E0E0EA9389C1EA30A0E0D4
:101D1400FA0741F5E0915604E0935E04EAE0E093AB
:101D24005C04E0915604E0935E04E0915704E09370
:101D34005F04E0915804E0936004A0915C04BB2725
:101D4400E0915E04F0E0AE0FBF1FE0915F04F0E0AD
:101D5400AE0FBF1FE0915D04F0E0EA0FE093610471
:101D6400EAE051C1E630A0E0FA0711F00C94171034
:101D7400E0915604E0935E04E0915704E0935F041D
:101D8400E0915804E0936004A0915F04AA3320F02A
:101D9400A0915F04A13508F012C0E0915F04F0E067
:101DA400E754FC4FA0915E04A083E0915F04F0E04F
:101DB400E050F040DF01E0915E040E94471CA091D6
:101DC4005F04A23020F0A0915F04AA3008F047C05D
:101DD400E0915F04F0E0E754FC4FA0915E04A0831F
:101DE400E0915F04F0E0E050F040DF01E0915E0438
:101DF4000E94471CE0915F04F0E0E752FC4FA09181
:101E04006004A083E0915F04F0E0E05EFF4FDF0137
:101E1400E09160040E94471CE0915F04F0E0CF0170
:101E24000F013297AAE0B4E0EE0FFF1FEA0FFB1F89
:101E3400BF01F001E754FC4FE081A4E0EA9FF00108
:101E4400DF01FC01E752FC4FE081F0E00E946D1BD2
:101E54000E94691BEA0FFB1FDB01ED93FC93A09129
:101E64005F04AA3120F0A0915F04A23208F020C0E0
:101E7400E0915E04E03069F0662D7727E0915F041D
:101E8400F0E07A97A1E0B0E00E945B1BDB01EA2B53
:101E94000EC0662D7727E0915F04F0E07A97A1E009
:101EA400B0E00E945B1BE095F095DB01EA236E2E07
:101EB400A0915F04A23120F0A0915F04AA3108F040
:101EC40047C0E0915F04F0E0E754FC4FA0915E044A
:101ED400A083E0915F04F0E0E050F040DF01E09186
:101EE4005E040E94471CE0915F04F0E0E752FC4F5F
:101EF400A0916004A083E0915F04F0E0E05EFF4FF6
:101F0400DF01E09160040E94471CE0915F04F0E06F
:101F1400CF010F017297AAE1B4E0EE0FFF1FEA0FA1
:101F2400FB1FBF01F001E754FC4FE081A4E0EA9FEE
:101F3400F001DF01FC01E752FC4FE081F0E00E9478
:101F44006D1B0E94691BEA0FFB1FDB01ED93FC93E1
:101F5400E0915F04E13021F4E3B1F0E0E87009F0CE
:101F64003CC0E8EEF3E0FA93EA930E942D1BE3B140
:101F7400F0E0E87089F5F894E0915E04E093BA0328
:101F8400A1E0B0E0E09156040E94471CE2E3F0E0D7
:101F9400FA93EA930E942D1B7894E091BA03F0E03F
:101FA4003796DF01E0915D04F0E0EA0FE09361040D
:101FB400E6E0EA93E0915D04EA93A1E0B0E00E94D8
:101FC4003B1CEA93E0915F04EA93E0E0EA93E0913A
:101FD4006104EA930E94440228C0E0915E04F0E0A8
:101FE4003696DF01E0915F04F0E0AE0FBF1FE09191
:101FF4006004F0E0AE0FBF1FE0915D04F0E0EA0F73
:10200400E0936104E6E0EA93E0915D04EA93E091F1
:102014005E04EA93E0915F04EA93E0916004EA933A
:10202400E0916104EA930E944402E0916704F0E0C5
:10203400E77FC5C4E0916704F0E0EF7BC0C4E091A2
:10204400BD03E23011F00C9446125524E8E05E160C
:1020540010F00C943312E52DF0E0A3E0B0E00E9400
:10206400841B3096A0912103B0E0EA17FB077CF4AF
:10207400E52DF0E0A7E0B0E00E94341CEA1BFB0B66
:10208400EF5EFC4FDF01EC91F0E0E2600EC0E52D65
:10209400F0E0A7E0B0E00E94341CEA1BFB0BEF5E0B
:1020A400FC4FDF01EC91F0E0ED7FEC93E52DF0E0E7
:1020B400A3E0B0E00E94841B3196A0912103B0E01C
:1020C400EA17FB077CF4E52DF0E0A7E0B0E00E94FE
:1020D400341CEA1BFB0BEF5EFC4FDF01EC91F0E0DC
:1020E400E0640EC0E52DF0E0A7E0B0E00E94341CEF
:1020F400EA1BFB0BEF5EFC4FDF01EC91F0E0EF7BA2
:10210400EC93E52DF0E0A3E0B0E00E94841B32964E
:10211400A0912103B0E0EA17FB077CF4E52DF0E081
:10212400A7E0B0E00E94341CEA1BFB0BEF5EFC4FFF
:10213400DF01EC91F0E0E0620EC0E52DF0E0A7E0F5
:10214400B0E00E94341CEA1BFB0BEF5EFC4FDF0186
:10215400EC91F0E0EF7DEC93E52DF0E0A3E0B0E04E
:102164000E94841B3096A0912203B0E0EA17FB077B
:102174007CF4E52DF0E0A7E0B0E00E94341CEA1BFB
:10218400FB0BEF5EFC4FDF01EC91F0E0E4600EC06E
:10219400E52DF0E0A7E0B0E00E94341CEA1BFB0B45
:1021A400EF5EFC4FDF01EC91F0E0EB7FEC93E52D6B
:1021B400F0E0A3E0B0E00E94841B3196A0912203DA
:1021C400B0E0EA17FB077CF4E52DF0E0A7E0B0E00F
:1021D4000E94341CEA1BFB0BEF5EFC4FDF01EC9109
:1021E400F0E0E8600EC0E52DF0E0A7E0B0E00E946A
:1021F400341CEA1BFB0BEF5EFC4FDF01EC91F0E0BB
:10220400E77FEC93E52DF0E0A3E0B0E00E94841BAF
:102214003296A0912203B0E0EA17FB077CF4E52D87
:10222400F0E0A7E0B0E00E94341CEA1BFB0BEF5E79
:10223400FC4FDF01EC91F0E0E0610EC0E52DF0E031
:10224400A7E0B0E00E94341CEA1BFB0BEF5EFC4FDE
:10225400DF01EC91F0E0EF7EEC93E52DF0E0A3E0FC
:10226400B0E00E94841B3096A0912303B0E0EA17EB
:10227400FB077CF4E52DF0E0AFE0B0E00E94341CF5
:10228400EA1BFB0BEF5EFC4FDF01EC91F0E0E26038
:102294000EC0E52DF0E0AFE0B0E00E94341CEA1B74
:1022A400FB0BEF5EFC4FDF01EC91F0E0ED7FEC9374
:1022B400E52DF0E0A3E0B0E00E94841B3196A091EC
:1022C4002303B0E0EA17FB077CF4E52DF0E0AFE070
:1022D400B0E00E94341CEA1BFB0BEF5EFC4FDF01F5
:1022E400EC91F0E0E0640EC0E52DF0E0AFE0B0E08A
:1022F4000E94341CEA1BFB0BEF5EFC4FDF01EC91E8
:10230400F0E0EF7BEC93E52DF0E0A3E0B0E00E9479
:10231400841B3296A0912303B0E0EA17FB077CF4F8
:10232400E52DF0E0AFE0B0E00E94341CEA1BFB0BAB
:10233400EF5EFC4FDF01EC91F0E0E0620EC0E52DB2
:10234400F0E0AFE0B0E00E94341CEA1BFB0BEF5E50
:10235400FC4FDF01EC91F0E0EF7DEC93E52DF0E034
:10236400A3E0B0E00E94841B3096A0912403B0E067
:10237400EA17FB077CF4E52DF0E0AFE0B0E00E9443
:10238400341CEA1BFB0BEF5EFC4FDF01EC91F0E029
:10239400E4600EC0E52DF0E0AFE0B0E00E94341C34
:1023A400EA1BFB0BEF5EFC4FDF01EC91F0E0EB7FEF
:1023B400EC93E52DF0E0A3E0B0E00E94841B31969D
:1023C400A0912403B0E0EA17FB077CF4E52DF0E0CC
:1023D400AFE0B0E00E94341CEA1BFB0BEF5EFC4F45
:1023E400DF01EC91F0E0E8600EC0E52DF0E0AFE035
:1023F400B0E00E94341CEA1BFB0BEF5EFC4FDF01D4
:10240400EC91F0E0E77FEC93E52DF0E0A3E0B0E0A1
:102414000E94841B3296A0912403B0E0EA17FB07C4
:102424007CF4E52DF0E0AFE0B0E00E94341CEA1B40
:10243400FB0BEF5EFC4FDF01EC91F0E0E0610EC0BE
:10244400E52DF0E0AFE0B0E00E94341CEA1BFB0B8A
:10245400EF5EFC4FDF01EC91F0E0EF7EEC935394E0
:10246400F5CDE8E1F3E00F01E081F0E0A1E0B0E0B8
:10247400EA27FB27D001EC93E0E2F3E00F01E081CF
:10248400F0E0A1E0B0E06DC1A0913404B091350456
:10249400EAE0F0E00E94C61BF0E0F0E0E050FD4FFF
:1024A400E081F0E0DF01E0911103F0E0E078F0700A
:1024B400EA2BE0931103A0913404B0913504EAE0CF
:1024C400F0E00E94891BF0E0F0E0DF01EAE0F0E0D8
:1024D4000E94C91BE050FD4FE081E0931203A091DC
:1024E4003404B0913504E4E6F0E00E94891BF0E086
:1024F400F0E0DF01EAE0F0E00E94C91BE050FD4F8C
:10250400E081E0931303A0913404B0913504A83E14
:10251400E3E0BE0798F0A0913404B0913504E8EEEE
:10252400F3E00E94891BF0E0F0E0DF01EAE0F0E074
:102534000E94C91BE050FD4FE08101C0E0E0E09340
:102544001403A0913204B0913304EAE0F0E00E9455
:10255400C61BF0E0F0E0E050FD4FE081E09315038E
:10256400A0913204B0913304EAE0F0E00E94891BA8
:10257400F0E0F0E0DF01EAE0F0E00E94C91BE05087
:10258400FD4FE081E0931603A0913204B09133042F
:10259400E4E6F0E00E94891BF0E0F0E0DF01EAE00D
:1025A400F0E00E94C91BE050FD4FE081E093170367
:1025B400A0913204B0913304A83EE3E0BE0778F062
:1025C400E8EEF3E00E94891BF0E0F0E0DF01EAE0CE
:1025D400F0E00E94C91BE050FD4FE08101C0E0E043
:1025E400E0931803A0913804B0913904EAE0F0E0D4
:1025F4000E94C61BF0E0F0E0E050FD4FE081F0E007
:10260400DF01E0911903F0E0E078F070EA2BE09349
:102614001903A0913804B0913904EAE0F0E00E9473
:10262400891BF0E0F0E0DF01EAE0F0E00E94C91B62
:10263400E050FD4FE081E0931A03A0913804B0917B
:102644003904E4E6F0E00E94891BF0E0F0E0DF01E9
:10265400EAE0F0E00E94C91BE050FD4FE081E09306
:102664001B03A0913804B0913904A83EE3E0BE07EF
:1026740098F0A0913804B0913904E8EEF3E00E9498
:10268400891BF0E0F0E0DF01EAE0F0E00E94C91B02
:10269400E050FD4FE08101C0E0E0E0931C03A09115
:1026A4003604B0913704EAE0F0E00E94C61BF0E083
:1026B400F0E0E050FD4FE081E0931D03A09136046B
:1026C400B0913704EAE0F0E00E94891BF0E0F0E00A
:1026D400DF01EAE0F0E00E94C91BE050FD4FE08119
:1026E400E0931E03A0913604B0913704E4E6F0E0D1
:1026F4000E94891BF0E0F0E0DF01EAE0F0E00E94D4
:10270400C91BE050FD4FE081E0931F03A091360404
:10271400B0913704A83EE3E0BE0798F0A0913604D8
:10272400B0913704E8EEF3E00E94891BF0E0F0E09A
:10273400DF01EAE0F0E00E94C91BE050FD4FE081B8
:1027440001C0E0E0E0932003E0911103F0E0A0E891
:10275400B0E0EA27E0931103E9E1F3E00F01E0813F
:10276400F0E0EA27FB27D001EC93F894E7B1F0E01E
:10277400E062E7B9ECB5F0E0E064ECBD459886E0D2
:102784008A95F1F7E0E0EA930E945E17E0E0EA93AD
:102794000E945E17EFE0EA930E945E17E0E0EA937E
:1027A4000E945E17459A459886E08A95F1F7E0E025
:1027B400EA930E945E17E0E0EA930E945E17EAE063
:1027C400EA930E945E17E091BB03EA930E945E17AE
:1027D400459A459886E08A95F1F7E0E0EA930E94ED
:1027E4005E17E0E0EA930E945E17ECE0EA930E9431
:1027F4005E17E1E0EA930E945E17459A459886E0E9
:102804008A95F1F7E0E0EA930E945E17E0E0EA932C
:102814000E945E17E9E0EA930E945E17E0E0EA9303
:102824000E945E17459A459886E08A95F1F7E0E0A4
:10283400EA930E945E17E0E0EA930E945E17EBE0E1
:10284400EA930E945E17E7E0EA930E945E17459AB6
:10285400459886E08A95F1F7EFE0EA930E945E17C7
:10286400E0E0EA930E945E17E0E0EA930E945E17BC
:10287400E0E0EA930E945E17459A459886E08A95BF
:10288400F1F7EAE0EA930E945E17E091BB03EA9352
:102894000E945E17E0E0EA930E945E17E0E0EA938C
:1028A4000E945E17459A459886E08A95F1F7ECE018
:1028B400EA930E945E17E1E0EA930E945E17E0E06B
:1028C400EA930E945E17E0E0EA930E945E17459A3D
:1028D400459886E08A95F1F7E9E0EA930E945E174D
:1028E400E0E0EA930E945E17E0E0EA930E945E173C
:1028F400E0E0EA930E945E17459A459886E08A953F
:10290400F1F7EBE0EA930E945E17E7E0EA930E9496
:102914005E17E0E0EA930E945E17E0E0EA930E940B
:102924005E17459AE1E05E2EE9E05E1600F54598F3
:1029340086E08A95F1F7E0E0EA930E945E17E0E012
:10294400EA930E945E175A920E945E17A52DB0E08A
:10295400E1E0F0E00E94341CEA1BFB0BEF5EFC4F4D
:10296400E081EA930E945E17459A5394DDCFE1E03B
:102974005E2EE9E05E16D0F4459886E08A95F1F77C
:102984005A920E945E17E52DF0E0E85EFC4FE0816C
:10299400EA930E945E17E0E0EA930E945E17E0E08B
:1029A400EA930E945E17459A5394E3CFECB5F0E0A6
:1029B400EF7BECBD7894E0916704F0E0EF77E0936F
:1029C40067040895A0E0B0E00E943B1CEA3AE9F0F5
:1029D400A1E0B0E0E1E00E94471CA0E0B0E0EAEA38
:1029E4000E94471CA2E0B0E0EFE00E94471CA3E075
:1029F400B0E0EAE00E94471CA4E0B0E0E0E00E94FE
:102A0400471CA5E0B0E00E94471CA1E0B0E00E9492
:102A14003B1CE093BA03E2E0AE2EEAE0AE1610F0FF
:102A24000C949515EA2DF0E0E754FC4F0F01AA2D04
:102A3400B0E0A050B0400E943B1CD001EC93EA2DC2
:102A4400F0E0DF01E753FC4F0F01A05FBF4F0E948E
:102A54003B1CD001EC93EA2DF0E0DF01E752FC4F80
:102A64000F01A05EBF4F0E943B1CD001EC93EA2DE6
:102A7400F0E0DF01E751FC4F0F01A05DBF4F0E9462
:102A84003B1CD001EC93AA2DB0E0E2E0F0E00E9400
:102A9400341CEA1BFB0BAAE0B4E0EE0FFF1FEA0FA5
:102AA400FB1FBF01EA2DF0E0E754FC4FE081A4E0F6
:102AB400EA9FF001DF01EA2DF0E0E752FC4FE081EC
:102AC400F0E00E946D1B0E94691BEA0FFB1FDB01F3
:102AD400ED93FC93AA2DB0E0E2E0F0E00E94341CF8
:102AE400EA1BFB0BAAE1B4E0EE0FFF1FEA0FFB1F8A
:102AF400BF01EA2DF0E0E753FC4FE081A4E0EA9F38
:102B0400F001DF01EA2DF0E0E751FC4FE081F0E055
:102B14000E946D1B0E94691BEA0FFB1FDB01ED93F2
:102B2400FC93A3947ACFEAE3AE2EE1E5AE1678F4F3
:102B3400EA2DF0E0E754FC4F0F01AA2DB0E0A050BD
:102B4400B0400E943B1CD001EC93A394EECFADE4C3
:102B5400B0E00E943B1CE0930604349903C0E2E019
:102B6400E093BD03E0E0E09307040895E8E2E5B9EB
:102B7400EFE2E4B9E0E1E8B9EFE0E7B9E0E0EBB9AE
:102B8400E2ECEAB9E0E0E4BDE5BDE6BDE7BDE8BDE1
:102B9400E0938000EBE0E0938100E0E0E0938500C7
:102BA400E0938400E0938700E0938600E1E0E09303
:102BB4008900E0E2E0938800E0E0E0938B00E0939A
:102BC4008A00E093B600E093B000E093B100E09394
:102BD400B200E093B300E093B400E0936E00E0939E
:102BE4006F00E0937000E0E8E0BFE0E0E0937B007A
:102BF400E0937E00E0E4E0937C00E5E8E0937A0073
:102C0400A895E9E3E0936000E9E2E0936000E0E086
:102C1400E093C000E8EDE093C100E6E0E093C20079
:102C2400E0E0E093C500E7E6E093C400E0E5ECBD36
:102C3400E0E0EDBDE2E3F0E0FA93EA930E942D1B9D
:102C4400C1DEE2E3F0E0FA93EA930E942D1B45987B
:102C540086E08A95F1F7E0E0EA932ED1E0E0EA938A
:102C64002BD1EFE0EA9328D1E0E0EA9325D1459A0D
:102C7400459886E08A95F1F7E0E0EA931DD1E0E01B
:102C8400EA931AD1EAE0EA9317D1E091BB03EA93FD
:102C940013D1459A459886E08A95F1F7E0E0EA93E6
:102CA4000BD1E0E0EA9308D1ECE0EA9305D1E1E04E
:102CB400EA9302D1459A459886E08A95F1F7E0E0D7
:102CC400EA93FAD0E0E0EA93F7D0E9E0EA93F4D0AB
:102CD400E0E0EA93F1D0459A459886E08A95F1F7C9
:102CE400E0E0EA93E9D0E0E0EA93E6D0EBE0EA93AF
:102CF400E3D0E7E0EA93E0D0459A459886E08A95E8
:102D0400F1F7EFE0EA93D8D0E0E0EA93D5D0E0E041
:102D1400EA93D2D0E0E0EA93CFD0459A459886E092
:102D24008A95F1F7EAE0EA93C7D0E091BB03EA930E
:102D3400C3D0E0E0EA93C0D0E0E0EA93BDD0459A86
:102D4400459886E08A95F1F7ECE0EA93B5D0E1E0A6
:102D5400EA93B2D0E0E0EA93AFD0E0E0EA93ACD0FB
:102D6400459A459886E08A95F1F7E9E0EA93A4D07C
:102D7400E0E0EA93A1D0E0E0EA939ED0E0E0EA93B9
:102D84009BD0459A459886E08A95F1F7EBE0EA9363
:102D940093D0E7E0EA9390D0E0E0EA938DD0E0E0CE
:102DA400EA938AD0459A7894E8E7F3E0E093320412
:102DB400F0933304E4E3F4E0A8E7B3E0A083B18341
:102DC400E6E3F4E0A083B183E8E3F4E0A083B18315
:102DD400E4E5FBE0FA93EA930E942D1BE2E0E09322
:102DE4006F008824E0E0E0936804A895609167048C
:102DF4007727E82DA1E00E94531BF0E0E623F72398
:102E0400309731F0E82D0E94531BE093680409C009
:102E14008394E8E0E81509F48824E0916804E0303C
:102E240021F3E0916804F0E0309709F443C0E13005
:102E3400A0E0FA0719F40E946A023CC0E230A0E064
:102E4400FA0741F4E0916704F0E0ED7FF070E0935D
:102E5400670430C0E430A0E0FA0751F40E944B0349
:102E6400E0916704F0E0EB7FF070E093670422C028
:102E7400E830A0E0FA0719F40E94B20D1BC0E0315B
:102E8400A0E0FA0719F40E94D50114C0E032A0E0D2
:102E9400FA0719F40E94D0010DC0E034A0E0FA074B
:102EA40019F40E941C1006C0E038A0E0FA0711F4DF
:102EB4000E94211096CFFFCFE881EEBDEDB5F0E082
:102EC400E078E1F3EEB52196089524971A930A93D6
:102ED400AE81BF81888599850E94161E2CF0EFEF84
:102EE400FFEF6FE77FEF9BC0EE81FF8168857985F7
:102EF4000E94291CEDB7FEB73197FA93EA931F930A
:102F04000F930E94581C0F911F91EE83FF836887D3
:102F14007987AE81BF8188859985E3EFF4E065E325
:102F24007FE30E94F21D60F4EE81FF81688579855C
:102F34000E94111DEE83FF8368877987015010403A
:102F4400AE81BF8188859985E0E0F0E060E87FE3A9
:102F54000E942E1C0E940A1D7F936F93FF93EF9390
:102F6400EE81FF8168857985A0E0B0E080E89FE389
:102F74000E94111DAF91BF918F919F910E94AD1D31
:102F8400EE83FF8368877987AE81BF8188859985C1
:102F94000E945F1DEA83FB836C837D83A6E2B2E417
:102FA40085E69FE30E945F1DDF01CB01EEE4F1E1C2
:102FB40064E570E40E942E1C0E940A1DAE81BF814C
:102FC400888599850E945F1D7F936F93FF93EF938C
:102FD400AA81BB818C819D81EDE4F1E164ED7FE305
:102FE4000E942E1C0E940A1DAF91BF918F919F9148
:102FF4000E94AD1D7F936F93FF93EF93F8010E949E
:10300400771B0E94D71CA8E1B2E781E39FE30E94EB
:103014005F1DAF91BF918F919F910E94111D1981E6
:1030240008812A960895A881B9818A819B810E948A
:10303400161E2CF0EFEFFFEF6FE77FEF0DC0E88176
:10304400F9816A817B810E94291C3FDFA9EDBBE5E0
:103054008EED9EE30E945F1D249608951A930A93B1
:10306400AC81BD810E94101C3097D9F0AA81BB812C
:103074000E94101C8F01309749F00230E0E01E07D7
:1030840078F0F80131978F01ED93FC93AC81BD8109
:10309400ED91FD913196FE93EE933197AE81A0832D
:1030A40004C0EE81EA930E94870119810881279662
:1030B40008952B970E941C1E10E0EF89F88D31961D
:1030C400EF8BF88F3197E4912E2FE03011F40C94AC
:1030D400F01AE12FF0E0309779F4253211F411E081
:1030E4000AC02A93EC89FD89FA93EA93FE01749647
:1030F400FA93EA93B3DF71C2E130A0E0FA07E9F48E
:10310400253259F42A93EC89FD89FA93EA93FE0156
:103114007496FA93EA93A2DF5FC212E040E000E003
:103124002D3211F401E059C22B3211F44BE255C295
:10313400203211F440E251C204C0E230A0E0FA07A8
:1031440061F450E013E0203339F4A02FB0E0E0E85C
:10315400F0E0EA2B0E2F41C204C0E330A0E0FA07EE
:1031640029F5203310F02A3308F015C0A52FB0E05C
:10317400EAE0F0E0EA02F0015E2F652F7727A22F44
:10318400B0E0E0E3F0E00E94341CEA1BFB0BDB013F
:10319400EA0F5E2F22C22C3641F4A02FB0E0E2E009
:1031A400F0E0EA2B0E2F15E018C206C0E530A0E0CF
:1031B400FA0711F00C94EF1AE22FF0E0E336A0E0E6
:1031C400FA0789F4ED89FE893497ED8BFE8BA4818F
:1031D400AA93EC89FD89FA93EA93FE017496FA9313
:1031E400EA933CDFF9C1E337A0E0FA0791F4ED89F3
:1031F400FE893497ED8BFE8BAD89BE8914960E94AF
:10320400101CEE83FF83FA93EA930E94181B1E2F6F
:103214001BC0E037A0E0FA0709F5ED89FE89349771
:10322400ED8BFE8BAD89BE8914960E94101CEE8333
:10323400FF83FA93EA930E94221B1E2FA02FB0E073
:10324400E8E0F0E0EA2B0E2FA02FB0E0EFE7FFEF6D
:10325400EA230E2FE0E0E88B30E0B7C0E436A0E0CC
:10326400FA0721F0E936A0E0FA0739F4A02FB0E01C
:10327400E4E0F0E0EA2B0E2F04C0E537A0E0FA0703
:10328400F1F4EAE0E88BA02FB0E0E2E0F0E0EA231A
:10329400FB23309751F0E0E0FAEC6AE97BE3E8873E
:1032A400F9876A877B871AE038C0E0E1F7E260E0DB
:1032B40070E0E887F9876A877B8715E02EC0E835D8
:1032C400A0E0FA0739F4A02FB0E0E8E0F0E0EA2B40
:1032D4000E2F06C0E837A0E0FA0711F00C94EE1A9E
:1032E400E0E1E88BA02FB0E0E2E0F0E0EA23FB238A
:1032F400309751F0E0E0F0E060E070E1E887F987B2
:103304006A877B8718E009C0E0E0F0E160E070E0E4
:10331400E887F9876A877B8714E0A02FB0E0E2E0B2
:10332400F0E0EA23FB23309759F0ED89FE893497C6
:10333400ED8BFE8BAD89BE8914960E94141C21C0AE
:10334400A02FB0E0E4E0F0E0EA23FB23309769F03B
:10335400ED89FE893497ED8BFE8BAD89BE89149679
:103364000E94101C0E94771B0CC0ED89FE893497C3
:10337400ED8BFE8BAD89BE8914960E94101C6627C6
:103384007727EC87FD876E877F87A02FB0E0E4E086
:10339400F0E0EA23FB233097C1F0AF85AA235AF467
:1033A400EC85FD856E857F850E944B1BEC87FD8730
:1033B4006E877F874DE2403011F01F5F06C0A02F5B
:1033C400B0E0EBEFFFEFEA230E2FE02FF0E0E17027
:1033D40051F5151740F5A02FB0E0E0E8F0E0EA233E
:1033E400FB23309799F0A02FB0E0E4E0F0E0EA236B
:1033F400FB23309749F0A02FB0E0EBEFFFEFEA2377
:103404000E2F242F115001C020E301C020E22A9383
:10341400EC89FD89FA93EA93FE017496FA93EA9390
:103424001DDE5150D6CF312FE889E03039F53030E8
:1034340021F1A02FB0E0E8E0F0E0EA23FB2330978D
:1034440041F0EE81FF813196EE83FF833197E49161
:1034540005C0AE81BF81ED91AE83BF83EA93EC8951
:10346400FD89FA93EA93FE017496FA93EA93F6DDE2
:10347400503009F051503150DACF9BC0E885F985BE
:103484006A857B85AC85BD858E859F850E949C1B46
:103494002E2F2A3090F0A02FB0E0E8E0F0E0EA23ED
:1034A400FB23309721F0E22FF0E0F79604C0E22FDF
:1034B400F0E0E95AFF4F2E2F04C0E22FF0E0F0961F
:1034C4002E2FA02FB0E0E0E1F0E0EA23FB233097B9
:1034D40009F041C0213360F4A885B9858A859B85AC
:1034E400A130E0E0BE07E0E08E07E0E09E0709F4CB
:1034F40011C0531720F0E02FF0E0E17009F038C05C
:1035040020E2A02FB0E0E0E8F0E0EA23FB233097CC
:1035140011F120E3A02FB0E0E0E1F0E0EA2B0E2F60
:10352400A02FB0E0E4E0F0E0EA23FB23309799F029
:10353400A02FB0E0EBEFFFEFEA230E2F4A93EC89C4
:10354400FD89FA93EA93FE017496FA93EA9386DD71
:10355400503009F051502A93EC89FD89FA93EA938B
:10356400FE017496FA93EA9379DD503009F05150D4
:103574003150E885F9856A857B85AC85BD858E8566
:103584009F850E94D71BEC87FD876E877F87E8891C
:10359400F0E0A885B9858A859B850E94771B0E94E7
:1035A4009C1BE887F9876A877B870E94121E09F0B3
:1035B40065CFE02FF0E0E17079F0503069F05150C0
:1035C400E0E2EA93EC89FD89FA93EA93FE017496AA
:1035D400FA93EA9343DDF1CF10E06FCD0E94231EEE
:1035E40069960895FF92F82E22971A930A93DE01A2
:1035F4000E94391B8D01E0E0EA83EB83DE0114961F
:103604000E94391B0E94101CFA93EA931A930A939E
:10361400FE013696FA93EA93E0E0F0E0FA93EA9337
:1036240048DD198108812496FF900895A991B991E4
:10363400EE27FF276D91662311F03196FBCF089595
:10364400AA27BB27E991F9910590002011F0119662
:10365400FBCFFD010895E991F991309639F080E0AE
:1036640092E10197F1F7A8953197C9F708950024DD
:10367400AF0DB01D0895EA0FFB1F681F791F089551
:10368400EA1BFB0B680B790B0895F195E195F0406B
:103694000895F09560957095E195FF4F6F4F7F4FBA
:1036A4000895EE230E2EEA2F19F0EE0F0A94E9F78F
:1036B4000895EE230E2EFD0121F0EE0FFF1F0A9454
:1036C400E1F70895EE0FFF1FEE0FFF1F0895F59524
:1036D400E795F595E795F595E795F595E7950895BB
:1036E400EE0FFF1F661F771F08956F2F660F660B7F
:1036F400762F0895FA9FF02DEB9FF00DEA9FE02DB1
:10370400F10D08956AD0F6DF0EF4BFDF08950024AA
:10371400112490E1AA0FBB1F001C111C0E1A1F0AD2
:1037240018F40E0E1F1E01C0A1609A9599F7FD01B1
:10373400D00108953F934F935F93002411244427AD
:10374400552730E2AA0FBB1F881F991F001C111CAC
:10375400441F551F0E1A1F0A460B570B28F40E0E52
:103764001F1E461F571F01C0A1603A9559F7FD015E
:10377400BC01D001CA015F914F913F9108953BD0A4
:10378400D9DF0EF486DF0895C2DFFD010895E894C1
:10379400B7FF04C0A095B09511966894F7FD75DF46
:1037A400B6DFFD010EF471DF0895C4DFFD01BC0135
:1037B4000895E89497FF09C0A095B09580959095D9
:1037C400AF5FBF4F8F4F9F4F689477FD62DFB2DFCB
:1037D400FD01BC010EF45DDF0895E894F7FF02C01B
:1037E40054DF6894B7FF06C0A095B095119600F811
:1037F400039400FA0895E89477FF02C04ADF6894BE
:1038040097FF0BC00024A095B095809590951196D4
:10381400801D901D00F8039400FA0895ED91FC9129
:1038240011970895ED91FD916D917C9113970895F1
:10383400ED91FD916D917D910895ED93FD936D93BF
:103844007C9308957E936E93FE93EE9308957A93FA
:103854006A93FA93EA930895182E862F612D192EF0
:10386400972F712D1B2EBF2FF12D1A2EAE2FE12D68
:103874000895F999FECFFF93FFB7F894A1BDB2BDA7
:10388400F89AE0B5FFBFFF910895F99B02C0A8958F
:10389400FCCF9FB7F894A1BDB2BDF89A80B5E817E4
:1038A40019F0E0BDFA9AF99A9FBF0895A991B991C8
:1038B400E991F9916991799177FB660F771F8827D0
:1038C4007E57880B7D938C937EE7769567950EF0F3
:1038D400089530976040704009F07058089555235A
:1038E40042F4503811F4E0FF04C03196691F791F87
:1038F4006BF050E8572711F45F93CDC05F3F31F070
:10390400660F000C57956795752F08955F930020F7
:103914000AF0CDC0C6C050E8192E1522880F991F91
:103924009527550F879550E8072E0522660F771FB8
:103934007527550F67950895689401C0E8945F93BF
:10394400F2DF703818F07F3F08F4A5C056E1571B2A
:10395400AAF4519558300EF4593030F0EFEFFFEFE0
:103964006FEF7FE777F91AC077275523B9F0EE0F89
:10397400FF1F661F771F5A95D1F710C0772758305D
:1039840028F0EF2FF62F672F5850F9CF552331F039
:1039940076956795F795E7955A95D1F700200AF43F
:1039A40078DE5F910895689401C0E8943097604090
:1039B4007040B1F0002426F0772312F4009469DEFD
:1039C400172E7EE1112032F07A95EE0FFF1F661F4D
:1039D400111CF9CFEF2FF62F612D5F938ADF5F91D2
:1039E40008954F93AF01FD01DA01AB01BC01CA0197
:1039F400402D012C142E4F910895EA0FFB1F681FD0
:103A04000895E095F0956095EF5FFF4F6F4F08952F
:103A14005F9381DF903871F150E8152604C05F93FD
:103A24007ADF903839F1703821F1572F591B13F18F
:103A340012F4D7DFFACF583118F0AA27BB2788270A
:103A4400583028F0AB2FB82F88275850F9CF55237A
:103A540029F08695B795A7955A95D9F7502D5125F4
:103A640062F0CBDF38F46795F795E795739513F417
:103A74001EC0B7DF3EDF5F910895EA1BFB0B680BA6
:103A840051F010F40094BDDF6623A2F3EE0FFF1F84
:103A9400661F7A95CBF7EE27FF27662777275F9176
:103AA4000895EFEFFFEF6FE77FEF5F910895EFEF7A
:103AB400FFEF6FE77FE75F9108955F932CDF703826
:103AC40051F3903841F301240894791F23F41CF333
:103AD40000203AF3ECCF0F921F932F933F934F9311
:103AE400112722279927689FA0018F9F302D410D10
:103AF400591F6B9F300D411D591F8E9F27D0BF9FAB
:103B040025D06A9F23D0BE9F1DD0AF9F1BD0AE9FF0
:103B1400110D291F391F491F591FE32FF42F652F3A
:103B2400522F4F913F912F911F910F9066232AF0AE
:103B3400550FEE1FFF1F661F02C073954BF2CFDEB9
:103B44005F910895100D211D391F02C0200D311DF4
:103B5400491F591F08955F93DEDE703821F4112048
:103B64000AF49FCFA4CF903809F495CF0124089488
:103B7400970B1BF4D4F30020F3CF792F1F932F93CB
:103B84003F934F9311241127222733274427552786
:103B940090E2AE17BF078607410730F0AE1BBF0B9C
:103BA400860B410B089401C08894551F221F331FB4
:103BB400111CAA1FBB1F881F441F9A9551F7F901B6
:103BC400612D4F913F912F911F91662332F0550F34
:103BD400EE1FFF1F661F7A9543F281DE5F91089501
:103BE40099239AF0772342F0971748F029F4AE17F7
:103BF400BF07860720F031F098948894089598942C
:103C0400089408951894889408957723C2F7971711
:103C140098F3A9F7EA17FB07680788F399F3ECCF41
:103C2400309760407040089500240A160B06080679
:103C3400090608955A934A933A932A931A930A9336
:103C440008955D814C813B812A8119810881089501
:00000001FF
